:100000000C9477000C9494000C9494000C9494003D
:100010000C9494000C9494000C9494000C94940010
:100020000C9494000C9494000C9494000C94940000
:100030000C9494000C9494000C9494000C949400F0
:100040000C9494000C9494000C9494000C949400E0
:100050000C9494000C9494000C9494000C949400D0
:100060000C9494000C9494000B02100215021A02D6
:100070001F02240229022E023302380256025602BF
:1000800056025602560256025602560256023D02C9
:1000900047024C02420256025602560256025602CD
:1000A0005602560256025602560256025602560290
:1000B0005602560256025602560256025602560280
:1000C0005602560256025602560256025602560270
:1000D0005602560256025602560256025602560260
:1000E0005602560256025602560256025102112478
:1000F0001FBECFEFD8E0DEBFCDBF11E0A0E0B1E082
:10010000EEE3FFE002C005900D92A638B107D9F7E3
:1001100021E0A6E8B1E001C01D92AB38B207E1F7DB
:100120000E9490010C949D070C9400002FEF8EE923
:1001300094E2215080409040E1F700C00000089513
:10014000E6E8F1E0108211821282138214828AB1F1
:1001500088608AB98FE39CE90197F1F700C000003D
:100160008AB1877F8AB990EA9A95F1F74B9932C0A4
:1001700085ED8A95F1F700004B9B2FC04B99FECF80
:1001800040E050E021C04B9BFECF9AE69A95F1F7F4
:1001900000C04B9B10C081E090E0022E02C0880F8F
:1001A000991F0A94E2F7FA01EA57FE4F9081892BD2
:1001B00080834B99FECF822F01C088E02FEF280F5C
:1001C0008111E1CF4F5F5F4F45305105B4F380E0BF
:1001D00090E0089581E090E0089582E090E0089535
:1001E000863479F0883419F0833441F505C0609184
:1001F0008601862F90E0089560918801862F90E017
:1002000008956091880170E080E090E00E94B4035E
:1002100020E030E040E151E40E94400420E030E082
:1002200040EA50E40E940A0320E030E040E052E45B
:100230000E949E020E947C03CB0108956091880178
:10024000862F90E008951F93CF93DF93D82F192F17
:10025000C62F0E94A000009789F09F938F9388E794
:1002600091E09F938F931F93DF930E94B3040F90AD
:100270000F900F900F900F900F904EC08C2F0E94F8
:10028000F000282F392FA9014D595F4F473C5105E8
:10029000A8F01F92CF939F938F9380E891E09F9354
:1002A0008F931F93DF930E94B3048DB79EB7089678
:1002B0000FB6F8949EBF0FBE8DBF2EC0275F3F4F75
:1002C00023313105A8F01F92CF939F938F938FE72F
:1002D00091E09F938F931F93DF930E94B3048DB798
:1002E0009EB708960FB6F8949EBF0FBE8DBF14C080
:1002F0001F92CF939F938F938EE791E09F938F935D
:100300001F93DF930E94B3048DB79EB708960FB674
:10031000F8949EBF0FBE8DBFDF91CF911F910895BE
:10032000CF93DF9300D000D0CDB7DEB70E94AD01F0
:100330000E94960063E4CE0101960E94230100E032
:1003400010E006C0CE0101960E945B020F5F1F4FB6
:10035000083E83E01807B4F3EDCF85B185B984B1C9
:100360008E6F84B98BB18BB98AB1806F8AB90895C9
:10037000FC018081813021F485B1806285B903C0A0
:1003800085B18F7D85B98181813021F485B1886007
:1003900085B903C085B1877F85B98281813021F419
:1003A00085B1806485B903C085B18F7B85B98381B0
:1003B000813021F485B1826085B903C085B18D7F1C
:1003C00085B98481813021F485B1846085B903C009
:1003D00085B18B7F85B98581813021F485B18061BC
:1003E00085B903C085B18F7E85B98681813021F4BE
:1003F00085B1806885B9089585B18F7785B90895ED
:1004000090E0FC01F097E334F10508F04FC0EC5C9C
:10041000FF4F0C94AD0480E091E00E94B801089574
:1004200088E091E00E94B801089580E191E00E9487
:10043000B801089588E191E00E94B801089580E232
:1004400091E00E94B801089588E291E00E94B8010D
:10045000089580E391E00E94B801089588E391E057
:100460000E94B801089580E491E00E94B8010895C7
:1004700088E491E00E94B801089580E591E00E942F
:10048000B801089588E591E00E94B801089580E6DA
:1004900091E00E94B801089588E691E00E94B801B9
:1004A000089580E791E00E94B801089580E691E008
:1004B0000E94B8010895CF93DF93EC018BB1806166
:1004C0008BB988810E9400028FE097E20197F1F7D3
:1004D00000C000008BB18F7E8BB98BB180628BB96D
:1004E00089810E9400028FE097E20197F1F700C036
:1004F00000008BB18F7D8BB98BB180648BB98A8101
:100500000E9400028FE097E20197F1F700C000001F
:100510008BB18F7B8BB98BB180688BB98B810E943B
:1005200000028FE097E20197F1F700C000008BB165
:100530008F778BB9DF91CF9108955058BB27AA27A9
:100540000E94B5020C9406040E94F80338F00E9441
:10055000FF0320F039F49F3F19F426F40C94F503BF
:100560000EF4E095E7FB0C94EF03E92F0E941704CB
:1005700058F3BA17620773078407950720F079F4D8
:10058000A6F50C9439040EF4E0950B2EBA2FA02D8D
:100590000B01B90190010C01CA01A0011124FF2730
:1005A000591B99F0593F50F4503E68F11A16F0402B
:1005B000A22F232F342F4427585FF3CF469537952A
:1005C0002795A795F0405395C9F77EF41F16BA0BEF
:1005D000620B730B840BBAF09150A1F0FF0FBB1F9D
:1005E000661F771F881FC2F70EC0BA0F621F731FE6
:1005F000841F48F4879577956795B795F7959E3F43
:1006000008F0B0CF9395880F08F09927EE0F9795D3
:10061000879508950E941E030C9406040E94FF0310
:1006200058F00E94F80340F029F45F3F29F00C9441
:10063000EF0351110C943A040C94F5030E94170433
:1006400068F39923B1F3552391F3951B550BBB2701
:10065000AA2762177307840738F09F5F5F4F220F46
:10066000331F441FAA1FA9F335D00E2E3AF0E0E83D
:1006700032D091505040E695001CCAF72BD0FE2F87
:1006800029D0660F771F881FBB1F2617370748071B
:10069000AB07B0E809F0BB0B802DBF01FF279358D3
:1006A0005F4F3AF09E3F510578F00C94EF030C94A5
:1006B0003A045F3FE4F3983ED4F3869577956795C7
:1006C000B795F7959F5FC9F7880F911D9695879508
:1006D00097F90895E1E0660F771F881FBB1F621727
:1006E00073078407BA0720F0621B730B840BBA0BE5
:1006F000EE1F88F7E09508950E9483036894B11176
:100700000C943A0408950E941F0488F09F5798F0B3
:10071000B92F9927B751B0F0E1F0660F771F881F06
:10072000991F1AF0BA95C9F714C0B13091F00E9420
:100730003904B1E008950C943904672F782F882785
:10074000B85F39F0B93FCCF3869577956795B39547
:10075000D9F73EF490958095709561957F4F8F4FB6
:100760009F4F0895E89409C097FB3EF490958095BB
:10077000709561957F4F8F4F9F4F9923A9F0F92F67
:1007800096E9BB279395F695879577956795B795E5
:10079000F111F8CFFAF4BB0F11F460FF1BC06F5FCB
:1007A0007F4F8F4F9F4F16C0882311F096E911C0DD
:1007B000772321F09EE8872F762F05C0662371F0FE
:1007C00096E8862F70E060E02AF09A95660F771F12
:1007D000881FDAF7880F9695879597F9089597F906
:1007E0009F6780E870E060E008959FEF80EC0895D7
:1007F00000240A9416161706180609060895002400
:100800000A9412161306140605060895092E039479
:10081000000C11F4882352F0BB0F40F4BF2B11F4ED
:1008200060FF04C06F5F7F4F8F4F9F4F089557FD4C
:100830009058440F551F59F05F3F71F04795880F4E
:1008400097FB991F61F09F3F79F0879508951216E5
:1008500013061406551FF2CF4695F1DF08C0161691
:1008600017061806991FF1CF869571056105089442
:100870000895E894BB2766277727CB0197F9089559
:100880000E9453040C9406040E94F80338F00E945E
:10089000FF0320F0952311F00C94EF030C94F50363
:1008A00011240C943A040E94170470F3959FC1F32D
:1008B000950F50E0551F629FF001729FBB27F00D0E
:1008C000B11D639FAA27F00DB11DAA1F649F662763
:1008D000B00DA11D661F829F2227B00DA11D621FB2
:1008E000739FB00DA11D621F839FA00D611D221F6C
:1008F000749F3327A00D611D231F849F600D211D50
:10090000822F762F6A2F11249F5750409AF0F1F0D2
:1009100088234AF0EE0FFF1FBB1F661F771F881F3B
:1009200091505040A9F79E3F510580F00C94EF0381
:100930000C943A045F3FE4F3983ED4F386957795A0
:100940006795B795F795E7959F5FC1F7FE2B880FE1
:10095000911D9695879597F90895EE0FFF1F0590C5
:10096000F491E02D0994AEE0B0E0E9EBF4E00C94F2
:1009700074070D891E8986E08C831A8309838FEFA3
:100980009FE79E838D83AE01475E5F4F6F89788DB1
:10099000CE0101960E94D504EF81F885E00FF11F8A
:1009A00010822E96E4E00C949007ABE0B0E0EBED03
:1009B000F4E00C9466076C017B018A01FC0117824C
:1009C0001682838181FFCCC1CE0101963C01F601E4
:1009D0009381F70193FD859193FF81917F01882396
:1009E00009F4BAC1853239F493FD859193FF819161
:1009F0007F01853229F4B60190E00E94CC06E7CF52
:100A0000912C212C312CFFE1F315D8F08B3279F0A9
:100A100038F4803279F08332A1F4232D20611DC097
:100A20008D3261F0803369F4232D216016C0832D4F
:100A30008260382EE32DE4603E2E2AC0F32DF8604C
:100A40001DC037FC2DC020ED280F2A3040F08E321B
:100A5000B9F436FC81C1232D2064322E19C036FE34
:100A600006C08AE0989E200D1124922E11C0EAE063
:100A70002E9E200D1124222EF32DF0623F2E08C051
:100A80008C3621F4832D8068382E02C0883641F4DC
:100A9000F70193FD859193FF81917F018111B3CF80
:100AA000982F9F7D9554933028F40C5F1F4F9FE340
:100AB00099830DC0833631F0833771F0833509F0A7
:100AC00059C021C0F801808189830E5F1F4F88249F
:100AD0008394912C530113C02801F2E04F0E511C56
:100AE000F801A080B18036FE03C0692D70E002C01D
:100AF0006FEF7FEFC5010E94C1064C018201F32D0B
:100B0000FF773F2E16C0280122E0420E511CF8014B
:100B1000A080B18036FE03C0692D70E002C06FEF87
:100B20007FEFC5010E94B6064C01F32DF0683F2E01
:100B3000820133FC1BC0822D90E088169906B0F428
:100B4000B60180E290E00E94CC062A94F4CFF50131
:100B500037FC859137FE81915F01B60190E00E94DC
:100B6000CC0621102A9421E0821A91088114910464
:100B700071F7E8C0843611F0893641F5F80137FE87
:100B800007C060817181828193810C5F1F4F08C013
:100B900060817181072E000C880B990B0E5F1F4F2F
:100BA000F32DFF763F2E97FF09C0909580957095A5
:100BB00061957F4F8F4F9F4FF0683F2E2AE030E0C6
:100BC000A3010E940807882E861845C0853731F496
:100BD000232D2F7EB22E2AE030E025C0932D997F61
:100BE000B92E8F36C1F018F4883579F0B5C080374A
:100BF00019F0883721F0B0C0E92FE061BE2EB4FEB5
:100C00000DC0FB2DF460BF2E09C034FE0AC0292F91
:100C10002660B22E06C028E030E005C020E130E0BA
:100C200002C020E132E0F801B7FE07C060817181A7
:100C3000828193810C5F1F4F06C06081718180E0CB
:100C400090E00E5F1F4FA3010E940807882E8618B0
:100C5000FB2DFF773F2E36FE0DC0232D2E7FA22EBB
:100C6000891458F434FE0BC032FC09C0832D8E7EEB
:100C7000A82E05C0B82CA32C03C0B82C01C0B92CD9
:100C8000A4FE0FC0FE01E80DF11D8081803321F428
:100C90009A2D997EA92E09C0A2FE06C0B394B394E2
:100CA00004C08A2D867809F0B394A3FC11C0A0FE7D
:100CB00006C0B21488F4280C922C9B180EC0B214F3
:100CC00060F4B60180E290E00E94CC06B394F7CFC6
:100CD000B21418F42B1802C0982C212CA4FE10C0BA
:100CE000B60180E390E00E94CC06A2FE17C0A1FCF2
:100CF00003C088E790E002C088E590E0B6010CC030
:100D00008A2D867859F0A1FE02C08BE201C080E2F4
:100D1000A7FC8DE2B60190E00E94CC06891438F45D
:100D2000B60180E390E00E94CC069A94F7CF8A94B3
:100D3000F301E80DF11D8081B60190E00E94CC0620
:100D40008110F5CF222009F442CEB60180E290E076
:100D50000E94CC062A94F6CFF6018681978102C0C4
:100D60008FEF9FEF2B96E2E10C948207FC01059038
:100D7000615070400110D8F7809590958E0F9F1F9D
:100D80000895FC016150704001900110D8F78095E2
:100D900090958E0F9F1F08950F931F93CF93DF930E
:100DA000FB01238121FD03C08FEF9FEF2CC022FFA9
:100DB00016C046815781248135814217530744F478
:100DC000A081B1819D012F5F3F4F318320838C93A0
:100DD000268137812F5F3F4F3783268314C08B01D5
:100DE000EC01FB010084F185E02D0995892BE1F6EA
:100DF000D80116968D919C911797019617969C9302
:100E00008E931697CE01DF91CF911F910F91089588
:100E1000FA01AA27283051F1203181F1E8946F932B
:100E20006E7F6E5F7F4F8F4F9F4FAF4FB1E03ED0D1
:100E3000B4E03CD0670F781F891F9A1FA11D680F6F
:100E4000791F8A1F911DA11D6A0F711D811D911DA2
:100E5000A11D20D009F468943F912AE0269F112417
:100E60003019305D3193DEF6CF010895462F47707B
:100E7000405D4193B3E00FD0C9F7F6CF462F4F70D6
:100E8000405D4A3318F0495D31FD4052419302D034
:100E9000A9F7EACFB4E0A6959795879577956795DA
:100EA000BA95C9F700976105710508959B01AC01DA
:100EB0000A2E06945795479537952795BA95C9F701
:100EC000620F731F841F951FA01D08952F923F92DC
:100ED0004F925F926F927F928F929F92AF92BF924A
:100EE000CF92DF92EF92FF920F931F93CF93DF93F6
:100EF000CDB7DEB7CA1BDB0B0FB6F894DEBF0FBE53
:100F0000CDBF09942A88398848885F846E847D849F
:100F10008C849B84AA84B984C884DF80EE80FD80A1
:100F20000C811B81AA81B981CE0FD11D0FB6F89417
:0E0F3000DEBF0FBECDBFED010895F894FFCFD8
:100F3E00010101010101000000010100000000009B
:100F4E000101000101000100010101010000010089
:100F5E00000101000001010001000101000101007A
:100F6E00010001010101010001010100000000006A
:100F7E000101010101010100010101010001010056
:100F8E00010100000001010001000000010101004B
:100F9E00000000000000000001000001010101003E
:100FAE0000000000010001004572722564004444F7
:060FBE002564256300001C
:00000001FF
